{
  "contractName": "Poster",
  "abi": [
    {
      "anonymous": false,
      "inputs": [
        {
          "indexed": true,
          "internalType": "address",
          "name": "user",
          "type": "address"
        },
        {
          "indexed": false,
          "internalType": "string",
          "name": "content",
          "type": "string"
        },
        {
          "indexed": true,
          "internalType": "string",
          "name": "tag",
          "type": "string"
        }
      ],
      "name": "NewPost",
      "type": "event"
    },
    {
      "constant": true,
      "inputs": [
        {
          "internalType": "uint256",
          "name": "",
          "type": "uint256"
        }
      ],
      "name": "posts",
      "outputs": [
        {
          "internalType": "address",
          "name": "user",
          "type": "address"
        },
        {
          "internalType": "string",
          "name": "content",
          "type": "string"
        },
        {
          "internalType": "string",
          "name": "tag",
          "type": "string"
        }
      ],
      "payable": false,
      "stateMutability": "view",
      "type": "function"
    },
    {
      "constant": false,
      "inputs": [
        {
          "internalType": "string",
          "name": "content",
          "type": "string"
        },
        {
          "internalType": "string",
          "name": "tag",
          "type": "string"
        }
      ],
      "name": "post",
      "outputs": [],
      "payable": false,
      "stateMutability": "nonpayable",
      "type": "function"
    },
    {
      "constant": true,
      "inputs": [],
      "name": "getPosts",
      "outputs": [
        {
          "components": [
            {
              "internalType": "address",
              "name": "user",
              "type": "address"
            },
            {
              "internalType": "string",
              "name": "content",
              "type": "string"
            },
            {
              "internalType": "string",
              "name": "tag",
              "type": "string"
            }
          ],
          "internalType": "struct Poster.Post[]",
          "name": "",
          "type": "tuple[]"
        }
      ],
      "payable": false,
      "stateMutability": "view",
      "type": "function"
    }
  ],
  "bytecode": "0x608060405234801561001057600080fd5b50610b57806100206000396000f3fe608060405234801561001057600080fd5b50600436106100415760003560e01c80630ae1b13d146100465780630b1e7f831461006257806341f3004a14610094575b600080fd5b610060600480360361005b919081019061068a565b6100b2565b005b61007c600480360361007791908101906106f6565b6101fc565b60405161008b93929190610910565b60405180910390f35b61009c610383565b6040516100a99190610955565b60405180910390f35b600060405180606001604052803373ffffffffffffffffffffffffffffffffffffffff168152602001848152602001838152509080600181540180825580915050906001820390600052602060002090600302016000909192909190915060008201518160000160006101000a81548173ffffffffffffffffffffffffffffffffffffffff021916908373ffffffffffffffffffffffffffffffffffffffff160217905550602082015181600101908051906020019061017392919061057c565b50604082015181600201908051906020019061019092919061057c565b50505050806040516101a291906108f9565b60405180910390203373ffffffffffffffffffffffffffffffffffffffff167f6c7f3182d7e4cb876251f9ae1489975fdbbf15d9f35d393f2ac9b1ff57cec69f846040516101f09190610977565b60405180910390a35050565b6000818154811061020957fe5b90600052602060002090600302016000915090508060000160009054906101000a900473ffffffffffffffffffffffffffffffffffffffff1690806001018054600181600116156101000203166002900480601f0160208091040260200160405190810160405280929190818152602001828054600181600116156101000203166002900480156102db5780601f106102b0576101008083540402835291602001916102db565b820191906000526020600020905b8154815290600101906020018083116102be57829003601f168201915b505050505090806002018054600181600116156101000203166002900480601f0160208091040260200160405190810160405280929190818152602001828054600181600116156101000203166002900480156103795780601f1061034e57610100808354040283529160200191610379565b820191906000526020600020905b81548152906001019060200180831161035c57829003601f168201915b5050505050905083565b60606000805480602002602001604051908101604052809291908181526020016000905b8282101561057357838290600052602060002090600302016040518060600160405290816000820160009054906101000a900473ffffffffffffffffffffffffffffffffffffffff1673ffffffffffffffffffffffffffffffffffffffff1673ffffffffffffffffffffffffffffffffffffffff168152602001600182018054600181600116156101000203166002900480601f0160208091040260200160405190810160405280929190818152602001828054600181600116156101000203166002900480156104b95780601f1061048e576101008083540402835291602001916104b9565b820191906000526020600020905b81548152906001019060200180831161049c57829003601f168201915b50505050508152602001600282018054600181600116156101000203166002900480601f01602080910402602001604051908101604052809291908181526020018280546001816001161561010002031660029004801561055b5780601f106105305761010080835404028352916020019161055b565b820191906000526020600020905b81548152906001019060200180831161053e57829003601f168201915b505050505081525050815260200190600101906103a7565b50505050905090565b828054600181600116156101000203166002900490600052602060002090601f016020900481019282601f106105bd57805160ff19168380011785556105eb565b828001600101855582156105eb579182015b828111156105ea5782518255916020019190600101906105cf565b5b5090506105f891906105fc565b5090565b61061e91905b8082111561061a576000816000905550600101610602565b5090565b90565b600082601f83011261063257600080fd5b8135610645610640826109c6565b610999565b9150808252602083016020830185838301111561066157600080fd5b61066c838284610aaa565b50505092915050565b60008135905061068481610afd565b92915050565b6000806040838503121561069d57600080fd5b600083013567ffffffffffffffff8111156106b757600080fd5b6106c385828601610621565b925050602083013567ffffffffffffffff8111156106e057600080fd5b6106ec85828601610621565b9150509250929050565b60006020828403121561070857600080fd5b600061071684828501610675565b91505092915050565b600061072b83836108a2565b905092915050565b61073c81610a6e565b82525050565b61074b81610a6e565b82525050565b600061075c82610a02565b6107668185610a30565b935083602082028501610778856109f2565b8060005b858110156107b45784840389528151610795858261071f565b94506107a083610a23565b925060208a0199505060018101905061077c565b50829750879550505050505092915050565b60006107d182610a18565b6107db8185610a52565b93506107eb818560208601610ab9565b6107f481610aec565b840191505092915050565b600061080a82610a18565b6108148185610a63565b9350610824818560208601610ab9565b80840191505092915050565b600061083b82610a0d565b6108458185610a41565b9350610855818560208601610ab9565b61085e81610aec565b840191505092915050565b600061087482610a0d565b61087e8185610a52565b935061088e818560208601610ab9565b61089781610aec565b840191505092915050565b60006060830160008301516108ba6000860182610733565b50602083015184820360208601526108d28282610830565b915050604083015184820360408601526108ec8282610830565b9150508091505092915050565b600061090582846107ff565b915081905092915050565b60006060820190506109256000830186610742565b81810360208301526109378185610869565b9050818103604083015261094b8184610869565b9050949350505050565b6000602082019050818103600083015261096f8184610751565b905092915050565b6000602082019050818103600083015261099181846107c6565b905092915050565b6000604051905081810181811067ffffffffffffffff821117156109bc57600080fd5b8060405250919050565b600067ffffffffffffffff8211156109dd57600080fd5b601f19601f8301169050602081019050919050565b6000819050602082019050919050565b600081519050919050565b600081519050919050565b600081519050919050565b6000602082019050919050565b600082825260208201905092915050565b600082825260208201905092915050565b600082825260208201905092915050565b600081905092915050565b6000610a7982610a80565b9050919050565b600073ffffffffffffffffffffffffffffffffffffffff82169050919050565b6000819050919050565b82818337600083830152505050565b60005b83811015610ad7578082015181840152602081019050610abc565b83811115610ae6576000848401525b50505050565b6000601f19601f8301169050919050565b610b0681610aa0565b8114610b1157600080fd5b5056fea365627a7a7231582044a135c803b89f18280de3478d407dfe1e1780d8639b989cedbc75994c01082f6c6578706572696d656e74616cf564736f6c63430005100040",
  "source": "// SPDX-License-Identifier: MIT\npragma solidity >=0.4.21 <0.9.0;\npragma experimental ABIEncoderV2;\n\n\ncontract Poster {\n    struct Post {\n        address user;\n        string content;\n        string tag;\n    }\n\n    // Массив для хранения постов\n    Post[] public posts;\n\n    // Событие, которое будет эмитироваться при создании нового поста\n    event NewPost(address indexed user, string content, string indexed tag);\n\n    // Функция для публикации поста\n    function post(string memory content, string memory tag) public {\n        // Создаем новый пост\n        posts.push(Post(msg.sender, content, tag));\n        // Эмитируем событие\n        emit NewPost(msg.sender, content, tag);\n    }\n\n    // Функция для получения всех постов\n    function getPosts() public view returns (Post[] memory) {\n        return posts;\n    }\n}",
  "sourcePath": "/home/nezlox/trr/2lb/poster-contract/contracts/Poster.sol",
  "compiler": {
    "name": "solc",
    "version": "0.5.16+commit.9c3226ce.Emscripten.clang"
  },
  "schemaVersion": "3.4.16",
  "updatedAt": "2024-10-18T11:09:13.092Z",
  "networkType": "ethereum",
  "devdoc": {
    "methods": {}
  },
  "userdoc": {
    "methods": {}
  },
  "db": {
    "callBytecode": {
      "id": "0x3c78b4c1562fdb73aacf1c76fbe4883523cd48ffb5a64eb108fdbfd513f7d631"
    },
    "createBytecode": {
      "id": "0x9a09cea112cfa5d4c22341071fcb83aeb7d445354554a6a76365b6e1a4ad8d78"
    },
    "contract": {
      "id": "0x77aa613e9ef9008822ea10ff95c4df0c3b83694aff3e28b5751b949de665b4bd"
    }
  }
}